{
	"contracts/transfer.sol": {
		"Test": {
			"abi": [
				{
					"inputs": [
						{
							"internalType": "address",
							"name": "_address",
							"type": "address"
						},
						{
							"internalType": "bytes",
							"name": "_payload",
							"type": "bytes"
						}
					],
					"name": "transferFunds",
					"outputs": [],
					"stateMutability": "nonpayable",
					"type": "function"
				}
			],
			"devdoc": {
				"kind": "dev",
				"methods": {},
				"version": 1
			},
			"evm": {
				"assembly": "    /* \"contracts/transfer.sol\":68:286  contract Test {\r... */\n  mstore(0x40, 0x80)\n  callvalue\n  dup1\n  iszero\n  tag_1\n  jumpi\n  0x00\n  dup1\n  revert\ntag_1:\n  pop\n  dataSize(sub_0)\n  dup1\n  dataOffset(sub_0)\n  0x00\n  codecopy\n  0x00\n  return\nstop\n\nsub_0: assembly {\n        /* \"contracts/transfer.sol\":68:286  contract Test {\r... */\n      mstore(0x40, 0x80)\n      callvalue\n      dup1\n      iszero\n      tag_1\n      jumpi\n      0x00\n      dup1\n      revert\n    tag_1:\n      pop\n      jumpi(tag_2, lt(calldatasize, 0x04))\n      shr(0xe0, calldataload(0x00))\n      dup1\n      0x474ed225\n      eq\n      tag_3\n      jumpi\n    tag_2:\n      0x00\n      dup1\n      revert\n        /* \"contracts/transfer.sol\":89:283  function transferFunds(address _address, bytes calldata _payload) external {\r... */\n    tag_3:\n      tag_4\n      0x04\n      dup1\n      calldatasize\n      sub\n      dup2\n      add\n      swap1\n      tag_5\n      swap2\n      swap1\n      tag_6\n      jump\t// in\n    tag_5:\n      tag_7\n      jump\t// in\n    tag_4:\n      stop\n    tag_7:\n        /* \"contracts/transfer.sol\":176:187  bool status */\n      0x00\n        /* \"contracts/transfer.sol\":192:200  _address */\n      dup4\n        /* \"contracts/transfer.sol\":192:213  _address.delegatecall */\n      0xffffffffffffffffffffffffffffffffffffffff\n      and\n        /* \"contracts/transfer.sol\":214:222  _payload */\n      dup4\n      dup4\n        /* \"contracts/transfer.sol\":192:223  _address.delegatecall(_payload) */\n      mload(0x40)\n      tag_9\n      swap3\n      swap2\n      swap1\n      tag_10\n      jump\t// in\n    tag_9:\n      0x00\n      mload(0x40)\n      dup1\n      dup4\n      sub\n      dup2\n      dup6\n      gas\n      delegatecall\n      swap2\n      pop\n      pop\n      returndatasize\n      dup1\n      0x00\n      dup2\n      eq\n      tag_13\n      jumpi\n      mload(0x40)\n      swap2\n      pop\n      and(add(returndatasize, 0x3f), not(0x1f))\n      dup3\n      add\n      0x40\n      mstore\n      returndatasize\n      dup3\n      mstore\n      returndatasize\n      0x00\n      0x20\n      dup5\n      add\n      returndatacopy\n      jump(tag_12)\n    tag_13:\n      0x60\n      swap2\n      pop\n    tag_12:\n      pop\n        /* \"contracts/transfer.sol\":175:223  (bool status,) = _address.delegatecall(_payload) */\n      pop\n      swap1\n      pop\n        /* \"contracts/transfer.sol\":242:248  status */\n      dup1\n        /* \"contracts/transfer.sol\":234:275  require(status, \"Forwarded call failed.\") */\n      tag_14\n      jumpi\n      mload(0x40)\n      0x08c379a000000000000000000000000000000000000000000000000000000000\n      dup2\n      mstore\n      0x04\n      add\n      tag_15\n      swap1\n      tag_16\n      jump\t// in\n    tag_15:\n      mload(0x40)\n      dup1\n      swap2\n      sub\n      swap1\n      revert\n    tag_14:\n        /* \"contracts/transfer.sol\":89:283  function transferFunds(address _address, bytes calldata _payload) external {\r... */\n      pop\n      pop\n      pop\n      pop\n      jump\t// out\n        /* \"#utility.yul\":7:146   */\n    tag_18:\n      0x00\n        /* \"#utility.yul\":91:97   */\n      dup2\n        /* \"#utility.yul\":78:98   */\n      calldataload\n        /* \"#utility.yul\":69:98   */\n      swap1\n      pop\n        /* \"#utility.yul\":107:140   */\n      tag_20\n        /* \"#utility.yul\":134:139   */\n      dup2\n        /* \"#utility.yul\":107:140   */\n      tag_21\n      jump\t// in\n    tag_20:\n        /* \"#utility.yul\":59:146   */\n      swap3\n      swap2\n      pop\n      pop\n      jump\t// out\n        /* \"#utility.yul\":165:516   */\n    tag_22:\n      0x00\n      dup1\n        /* \"#utility.yul\":282:285   */\n      dup4\n        /* \"#utility.yul\":275:279   */\n      0x1f\n        /* \"#utility.yul\":267:273   */\n      dup5\n        /* \"#utility.yul\":263:280   */\n      add\n        /* \"#utility.yul\":259:286   */\n      slt\n        /* \"#utility.yul\":249:251   */\n      tag_24\n      jumpi\n        /* \"#utility.yul\":300:301   */\n      0x00\n        /* \"#utility.yul\":297:298   */\n      dup1\n        /* \"#utility.yul\":290:302   */\n      revert\n        /* \"#utility.yul\":249:251   */\n    tag_24:\n        /* \"#utility.yul\":336:342   */\n      dup3\n        /* \"#utility.yul\":323:343   */\n      calldataload\n        /* \"#utility.yul\":313:343   */\n      swap1\n      pop\n        /* \"#utility.yul\":366:384   */\n      0xffffffffffffffff\n        /* \"#utility.yul\":358:364   */\n      dup2\n        /* \"#utility.yul\":355:385   */\n      gt\n        /* \"#utility.yul\":352:354   */\n      iszero\n      tag_25\n      jumpi\n        /* \"#utility.yul\":398:399   */\n      0x00\n        /* \"#utility.yul\":395:396   */\n      dup1\n        /* \"#utility.yul\":388:400   */\n      revert\n        /* \"#utility.yul\":352:354   */\n    tag_25:\n        /* \"#utility.yul\":435:439   */\n      0x20\n        /* \"#utility.yul\":427:433   */\n      dup4\n        /* \"#utility.yul\":423:440   */\n      add\n        /* \"#utility.yul\":411:440   */\n      swap2\n      pop\n        /* \"#utility.yul\":489:492   */\n      dup4\n        /* \"#utility.yul\":481:485   */\n      0x01\n        /* \"#utility.yul\":473:479   */\n      dup3\n        /* \"#utility.yul\":469:486   */\n      mul\n        /* \"#utility.yul\":459:467   */\n      dup4\n        /* \"#utility.yul\":455:487   */\n      add\n        /* \"#utility.yul\":452:493   */\n      gt\n        /* \"#utility.yul\":449:451   */\n      iszero\n      tag_26\n      jumpi\n        /* \"#utility.yul\":506:507   */\n      0x00\n        /* \"#utility.yul\":503:504   */\n      dup1\n        /* \"#utility.yul\":496:508   */\n      revert\n        /* \"#utility.yul\":449:451   */\n    tag_26:\n        /* \"#utility.yul\":239:516   */\n      swap3\n      pop\n      swap3\n      swap1\n      pop\n      jump\t// out\n        /* \"#utility.yul\":522:1060   */\n    tag_6:\n      0x00\n      dup1\n      0x00\n        /* \"#utility.yul\":666:668   */\n      0x40\n        /* \"#utility.yul\":654:663   */\n      dup5\n        /* \"#utility.yul\":645:652   */\n      dup7\n        /* \"#utility.yul\":641:664   */\n      sub\n        /* \"#utility.yul\":637:669   */\n      slt\n        /* \"#utility.yul\":634:636   */\n      iszero\n      tag_28\n      jumpi\n        /* \"#utility.yul\":682:683   */\n      0x00\n        /* \"#utility.yul\":679:680   */\n      dup1\n        /* \"#utility.yul\":672:684   */\n      revert\n        /* \"#utility.yul\":634:636   */\n    tag_28:\n        /* \"#utility.yul\":725:726   */\n      0x00\n        /* \"#utility.yul\":750:803   */\n      tag_29\n        /* \"#utility.yul\":795:802   */\n      dup7\n        /* \"#utility.yul\":786:792   */\n      dup3\n        /* \"#utility.yul\":775:784   */\n      dup8\n        /* \"#utility.yul\":771:793   */\n      add\n        /* \"#utility.yul\":750:803   */\n      tag_18\n      jump\t// in\n    tag_29:\n        /* \"#utility.yul\":740:803   */\n      swap4\n      pop\n        /* \"#utility.yul\":696:813   */\n      pop\n        /* \"#utility.yul\":880:882   */\n      0x20\n        /* \"#utility.yul\":869:878   */\n      dup5\n        /* \"#utility.yul\":865:883   */\n      add\n        /* \"#utility.yul\":852:884   */\n      calldataload\n        /* \"#utility.yul\":911:929   */\n      0xffffffffffffffff\n        /* \"#utility.yul\":903:909   */\n      dup2\n        /* \"#utility.yul\":900:930   */\n      gt\n        /* \"#utility.yul\":897:899   */\n      iszero\n      tag_30\n      jumpi\n        /* \"#utility.yul\":943:944   */\n      0x00\n        /* \"#utility.yul\":940:941   */\n      dup1\n        /* \"#utility.yul\":933:945   */\n      revert\n        /* \"#utility.yul\":897:899   */\n    tag_30:\n        /* \"#utility.yul\":979:1043   */\n      tag_31\n        /* \"#utility.yul\":1035:1042   */\n      dup7\n        /* \"#utility.yul\":1026:1032   */\n      dup3\n        /* \"#utility.yul\":1015:1024   */\n      dup8\n        /* \"#utility.yul\":1011:1033   */\n      add\n        /* \"#utility.yul\":979:1043   */\n      tag_22\n      jump\t// in\n    tag_31:\n        /* \"#utility.yul\":961:1043   */\n      swap3\n      pop\n      swap3\n      pop\n        /* \"#utility.yul\":823:1053   */\n      pop\n        /* \"#utility.yul\":624:1060   */\n      swap3\n      pop\n      swap3\n      pop\n      swap3\n      jump\t// out\n        /* \"#utility.yul\":1088:1402   */\n    tag_32:\n      0x00\n        /* \"#utility.yul\":1223:1311   */\n      tag_34\n        /* \"#utility.yul\":1304:1310   */\n      dup4\n        /* \"#utility.yul\":1299:1302   */\n      dup6\n        /* \"#utility.yul\":1223:1311   */\n      tag_35\n      jump\t// in\n    tag_34:\n        /* \"#utility.yul\":1216:1311   */\n      swap4\n      pop\n        /* \"#utility.yul\":1321:1364   */\n      tag_36\n        /* \"#utility.yul\":1357:1363   */\n      dup4\n        /* \"#utility.yul\":1352:1355   */\n      dup6\n        /* \"#utility.yul\":1345:1350   */\n      dup5\n        /* \"#utility.yul\":1321:1364   */\n      tag_37\n      jump\t// in\n    tag_36:\n        /* \"#utility.yul\":1389:1395   */\n      dup3\n        /* \"#utility.yul\":1384:1387   */\n      dup5\n        /* \"#utility.yul\":1380:1396   */\n      add\n        /* \"#utility.yul\":1373:1396   */\n      swap1\n      pop\n        /* \"#utility.yul\":1206:1402   */\n      swap4\n      swap3\n      pop\n      pop\n      pop\n      jump\t// out\n        /* \"#utility.yul\":1408:1728   */\n    tag_38:\n      0x00\n        /* \"#utility.yul\":1571:1638   */\n      tag_40\n        /* \"#utility.yul\":1635:1637   */\n      0x16\n        /* \"#utility.yul\":1630:1633   */\n      dup4\n        /* \"#utility.yul\":1571:1638   */\n      tag_41\n      jump\t// in\n    tag_40:\n        /* \"#utility.yul\":1564:1638   */\n      swap2\n      pop\n        /* \"#utility.yul\":1668:1692   */\n      0x466f727761726465642063616c6c206661696c65642e00000000000000000000\n        /* \"#utility.yul\":1664:1665   */\n      0x00\n        /* \"#utility.yul\":1659:1662   */\n      dup4\n        /* \"#utility.yul\":1655:1666   */\n      add\n        /* \"#utility.yul\":1648:1693   */\n      mstore\n        /* \"#utility.yul\":1719:1721   */\n      0x20\n        /* \"#utility.yul\":1714:1717   */\n      dup3\n        /* \"#utility.yul\":1710:1722   */\n      add\n        /* \"#utility.yul\":1703:1722   */\n      swap1\n      pop\n        /* \"#utility.yul\":1554:1728   */\n      swap2\n      swap1\n      pop\n      jump\t// out\n        /* \"#utility.yul\":1734:2025   */\n    tag_10:\n      0x00\n        /* \"#utility.yul\":1896:1999   */\n      tag_43\n        /* \"#utility.yul\":1995:1998   */\n      dup3\n        /* \"#utility.yul\":1986:1992   */\n      dup5\n        /* \"#utility.yul\":1978:1984   */\n      dup7\n        /* \"#utility.yul\":1896:1999   */\n      tag_32\n      jump\t// in\n    tag_43:\n        /* \"#utility.yul\":1889:1999   */\n      swap2\n      pop\n        /* \"#utility.yul\":2016:2019   */\n      dup2\n        /* \"#utility.yul\":2009:2019   */\n      swap1\n      pop\n        /* \"#utility.yul\":1878:2025   */\n      swap4\n      swap3\n      pop\n      pop\n      pop\n      jump\t// out\n        /* \"#utility.yul\":2031:2450   */\n    tag_16:\n      0x00\n        /* \"#utility.yul\":2235:2237   */\n      0x20\n        /* \"#utility.yul\":2224:2233   */\n      dup3\n        /* \"#utility.yul\":2220:2238   */\n      add\n        /* \"#utility.yul\":2212:2238   */\n      swap1\n      pop\n        /* \"#utility.yul\":2284:2293   */\n      dup2\n        /* \"#utility.yul\":2278:2282   */\n      dup2\n        /* \"#utility.yul\":2274:2294   */\n      sub\n        /* \"#utility.yul\":2270:2271   */\n      0x00\n        /* \"#utility.yul\":2259:2268   */\n      dup4\n        /* \"#utility.yul\":2255:2272   */\n      add\n        /* \"#utility.yul\":2248:2295   */\n      mstore\n        /* \"#utility.yul\":2312:2443   */\n      tag_45\n        /* \"#utility.yul\":2438:2442   */\n      dup2\n        /* \"#utility.yul\":2312:2443   */\n      tag_38\n      jump\t// in\n    tag_45:\n        /* \"#utility.yul\":2304:2443   */\n      swap1\n      pop\n        /* \"#utility.yul\":2202:2450   */\n      swap2\n      swap1\n      pop\n      jump\t// out\n        /* \"#utility.yul\":2456:2603   */\n    tag_35:\n      0x00\n        /* \"#utility.yul\":2594:2597   */\n      dup2\n        /* \"#utility.yul\":2579:2597   */\n      swap1\n      pop\n        /* \"#utility.yul\":2569:2603   */\n      swap3\n      swap2\n      pop\n      pop\n      jump\t// out\n        /* \"#utility.yul\":2609:2778   */\n    tag_41:\n      0x00\n        /* \"#utility.yul\":2727:2733   */\n      dup3\n        /* \"#utility.yul\":2722:2725   */\n      dup3\n        /* \"#utility.yul\":2715:2734   */\n      mstore\n        /* \"#utility.yul\":2767:2771   */\n      0x20\n        /* \"#utility.yul\":2762:2765   */\n      dup3\n        /* \"#utility.yul\":2758:2772   */\n      add\n        /* \"#utility.yul\":2743:2772   */\n      swap1\n      pop\n        /* \"#utility.yul\":2705:2778   */\n      swap3\n      swap2\n      pop\n      pop\n      jump\t// out\n        /* \"#utility.yul\":2784:2880   */\n    tag_48:\n      0x00\n        /* \"#utility.yul\":2850:2874   */\n      tag_50\n        /* \"#utility.yul\":2868:2873   */\n      dup3\n        /* \"#utility.yul\":2850:2874   */\n      tag_51\n      jump\t// in\n    tag_50:\n        /* \"#utility.yul\":2839:2874   */\n      swap1\n      pop\n        /* \"#utility.yul\":2829:2880   */\n      swap2\n      swap1\n      pop\n      jump\t// out\n        /* \"#utility.yul\":2886:3012   */\n    tag_51:\n      0x00\n        /* \"#utility.yul\":2963:3005   */\n      0xffffffffffffffffffffffffffffffffffffffff\n        /* \"#utility.yul\":2956:2961   */\n      dup3\n        /* \"#utility.yul\":2952:3006   */\n      and\n        /* \"#utility.yul\":2941:3006   */\n      swap1\n      pop\n        /* \"#utility.yul\":2931:3012   */\n      swap2\n      swap1\n      pop\n      jump\t// out\n        /* \"#utility.yul\":3018:3172   */\n    tag_37:\n        /* \"#utility.yul\":3102:3108   */\n      dup3\n        /* \"#utility.yul\":3097:3100   */\n      dup2\n        /* \"#utility.yul\":3092:3095   */\n      dup4\n        /* \"#utility.yul\":3079:3109   */\n      calldatacopy\n        /* \"#utility.yul\":3164:3165   */\n      0x00\n        /* \"#utility.yul\":3155:3161   */\n      dup4\n        /* \"#utility.yul\":3150:3153   */\n      dup4\n        /* \"#utility.yul\":3146:3162   */\n      add\n        /* \"#utility.yul\":3139:3166   */\n      mstore\n        /* \"#utility.yul\":3069:3172   */\n      pop\n      pop\n      pop\n      jump\t// out\n        /* \"#utility.yul\":3178:3300   */\n    tag_21:\n        /* \"#utility.yul\":3251:3275   */\n      tag_55\n        /* \"#utility.yul\":3269:3274   */\n      dup2\n        /* \"#utility.yul\":3251:3275   */\n      tag_48\n      jump\t// in\n    tag_55:\n        /* \"#utility.yul\":3244:3249   */\n      dup2\n        /* \"#utility.yul\":3241:3276   */\n      eq\n        /* \"#utility.yul\":3231:3233   */\n      tag_56\n      jumpi\n        /* \"#utility.yul\":3290:3291   */\n      0x00\n        /* \"#utility.yul\":3287:3288   */\n      dup1\n        /* \"#utility.yul\":3280:3292   */\n      revert\n        /* \"#utility.yul\":3231:3233   */\n    tag_56:\n        /* \"#utility.yul\":3221:3300   */\n      pop\n      jump\t// out\n\n    auxdata: 0xa2646970667358221220eaf357377143c48b350acbbcf4cc3bee3ed7cf1f30e2ab4dd58b67cef0b3849264736f6c63430008000033\n}\n",
				"bytecode": {
					"linkReferences": {},
					"object": "608060405234801561001057600080fd5b506102fe806100206000396000f3fe608060405234801561001057600080fd5b506004361061002b5760003560e01c8063474ed22514610030575b600080fd5b61004a6004803603810190610045919061015e565b61004c565b005b60008373ffffffffffffffffffffffffffffffffffffffff16838360405161007592919061021b565b600060405180830381855af49150503d80600081146100b0576040519150601f19603f3d011682016040523d82523d6000602084013e6100b5565b606091505b50509050806100f9576040517f08c379a00000000000000000000000000000000000000000000000000000000081526004016100f090610234565b60405180910390fd5b50505050565b60008135905061010e816102b1565b92915050565b60008083601f84011261012657600080fd5b8235905067ffffffffffffffff81111561013f57600080fd5b60208301915083600182028301111561015757600080fd5b9250929050565b60008060006040848603121561017357600080fd5b6000610181868287016100ff565b935050602084013567ffffffffffffffff81111561019e57600080fd5b6101aa86828701610114565b92509250509250925092565b60006101c28385610254565b93506101cf8385846102a2565b82840190509392505050565b60006101e860168361025f565b91507f466f727761726465642063616c6c206661696c65642e000000000000000000006000830152602082019050919050565b60006102288284866101b6565b91508190509392505050565b6000602082019050818103600083015261024d816101db565b9050919050565b600081905092915050565b600082825260208201905092915050565b600061027b82610282565b9050919050565b600073ffffffffffffffffffffffffffffffffffffffff82169050919050565b82818337600083830152505050565b6102ba81610270565b81146102c557600080fd5b5056fea2646970667358221220eaf357377143c48b350acbbcf4cc3bee3ed7cf1f30e2ab4dd58b67cef0b3849264736f6c63430008000033",
					"opcodes": "PUSH1 0x80 PUSH1 0x40 MSTORE CALLVALUE DUP1 ISZERO PUSH2 0x10 JUMPI PUSH1 0x0 DUP1 REVERT JUMPDEST POP PUSH2 0x2FE DUP1 PUSH2 0x20 PUSH1 0x0 CODECOPY PUSH1 0x0 RETURN INVALID PUSH1 0x80 PUSH1 0x40 MSTORE CALLVALUE DUP1 ISZERO PUSH2 0x10 JUMPI PUSH1 0x0 DUP1 REVERT JUMPDEST POP PUSH1 0x4 CALLDATASIZE LT PUSH2 0x2B JUMPI PUSH1 0x0 CALLDATALOAD PUSH1 0xE0 SHR DUP1 PUSH4 0x474ED225 EQ PUSH2 0x30 JUMPI JUMPDEST PUSH1 0x0 DUP1 REVERT JUMPDEST PUSH2 0x4A PUSH1 0x4 DUP1 CALLDATASIZE SUB DUP2 ADD SWAP1 PUSH2 0x45 SWAP2 SWAP1 PUSH2 0x15E JUMP JUMPDEST PUSH2 0x4C JUMP JUMPDEST STOP JUMPDEST PUSH1 0x0 DUP4 PUSH20 0xFFFFFFFFFFFFFFFFFFFFFFFFFFFFFFFFFFFFFFFF AND DUP4 DUP4 PUSH1 0x40 MLOAD PUSH2 0x75 SWAP3 SWAP2 SWAP1 PUSH2 0x21B JUMP JUMPDEST PUSH1 0x0 PUSH1 0x40 MLOAD DUP1 DUP4 SUB DUP2 DUP6 GAS DELEGATECALL SWAP2 POP POP RETURNDATASIZE DUP1 PUSH1 0x0 DUP2 EQ PUSH2 0xB0 JUMPI PUSH1 0x40 MLOAD SWAP2 POP PUSH1 0x1F NOT PUSH1 0x3F RETURNDATASIZE ADD AND DUP3 ADD PUSH1 0x40 MSTORE RETURNDATASIZE DUP3 MSTORE RETURNDATASIZE PUSH1 0x0 PUSH1 0x20 DUP5 ADD RETURNDATACOPY PUSH2 0xB5 JUMP JUMPDEST PUSH1 0x60 SWAP2 POP JUMPDEST POP POP SWAP1 POP DUP1 PUSH2 0xF9 JUMPI PUSH1 0x40 MLOAD PUSH32 0x8C379A000000000000000000000000000000000000000000000000000000000 DUP2 MSTORE PUSH1 0x4 ADD PUSH2 0xF0 SWAP1 PUSH2 0x234 JUMP JUMPDEST PUSH1 0x40 MLOAD DUP1 SWAP2 SUB SWAP1 REVERT JUMPDEST POP POP POP POP JUMP JUMPDEST PUSH1 0x0 DUP2 CALLDATALOAD SWAP1 POP PUSH2 0x10E DUP2 PUSH2 0x2B1 JUMP JUMPDEST SWAP3 SWAP2 POP POP JUMP JUMPDEST PUSH1 0x0 DUP1 DUP4 PUSH1 0x1F DUP5 ADD SLT PUSH2 0x126 JUMPI PUSH1 0x0 DUP1 REVERT JUMPDEST DUP3 CALLDATALOAD SWAP1 POP PUSH8 0xFFFFFFFFFFFFFFFF DUP2 GT ISZERO PUSH2 0x13F JUMPI PUSH1 0x0 DUP1 REVERT JUMPDEST PUSH1 0x20 DUP4 ADD SWAP2 POP DUP4 PUSH1 0x1 DUP3 MUL DUP4 ADD GT ISZERO PUSH2 0x157 JUMPI PUSH1 0x0 DUP1 REVERT JUMPDEST SWAP3 POP SWAP3 SWAP1 POP JUMP JUMPDEST PUSH1 0x0 DUP1 PUSH1 0x0 PUSH1 0x40 DUP5 DUP7 SUB SLT ISZERO PUSH2 0x173 JUMPI PUSH1 0x0 DUP1 REVERT JUMPDEST PUSH1 0x0 PUSH2 0x181 DUP7 DUP3 DUP8 ADD PUSH2 0xFF JUMP JUMPDEST SWAP4 POP POP PUSH1 0x20 DUP5 ADD CALLDATALOAD PUSH8 0xFFFFFFFFFFFFFFFF DUP2 GT ISZERO PUSH2 0x19E JUMPI PUSH1 0x0 DUP1 REVERT JUMPDEST PUSH2 0x1AA DUP7 DUP3 DUP8 ADD PUSH2 0x114 JUMP JUMPDEST SWAP3 POP SWAP3 POP POP SWAP3 POP SWAP3 POP SWAP3 JUMP JUMPDEST PUSH1 0x0 PUSH2 0x1C2 DUP4 DUP6 PUSH2 0x254 JUMP JUMPDEST SWAP4 POP PUSH2 0x1CF DUP4 DUP6 DUP5 PUSH2 0x2A2 JUMP JUMPDEST DUP3 DUP5 ADD SWAP1 POP SWAP4 SWAP3 POP POP POP JUMP JUMPDEST PUSH1 0x0 PUSH2 0x1E8 PUSH1 0x16 DUP4 PUSH2 0x25F JUMP JUMPDEST SWAP2 POP PUSH32 0x466F727761726465642063616C6C206661696C65642E00000000000000000000 PUSH1 0x0 DUP4 ADD MSTORE PUSH1 0x20 DUP3 ADD SWAP1 POP SWAP2 SWAP1 POP JUMP JUMPDEST PUSH1 0x0 PUSH2 0x228 DUP3 DUP5 DUP7 PUSH2 0x1B6 JUMP JUMPDEST SWAP2 POP DUP2 SWAP1 POP SWAP4 SWAP3 POP POP POP JUMP JUMPDEST PUSH1 0x0 PUSH1 0x20 DUP3 ADD SWAP1 POP DUP2 DUP2 SUB PUSH1 0x0 DUP4 ADD MSTORE PUSH2 0x24D DUP2 PUSH2 0x1DB JUMP JUMPDEST SWAP1 POP SWAP2 SWAP1 POP JUMP JUMPDEST PUSH1 0x0 DUP2 SWAP1 POP SWAP3 SWAP2 POP POP JUMP JUMPDEST PUSH1 0x0 DUP3 DUP3 MSTORE PUSH1 0x20 DUP3 ADD SWAP1 POP SWAP3 SWAP2 POP POP JUMP JUMPDEST PUSH1 0x0 PUSH2 0x27B DUP3 PUSH2 0x282 JUMP JUMPDEST SWAP1 POP SWAP2 SWAP1 POP JUMP JUMPDEST PUSH1 0x0 PUSH20 0xFFFFFFFFFFFFFFFFFFFFFFFFFFFFFFFFFFFFFFFF DUP3 AND SWAP1 POP SWAP2 SWAP1 POP JUMP JUMPDEST DUP3 DUP2 DUP4 CALLDATACOPY PUSH1 0x0 DUP4 DUP4 ADD MSTORE POP POP POP JUMP JUMPDEST PUSH2 0x2BA DUP2 PUSH2 0x270 JUMP JUMPDEST DUP2 EQ PUSH2 0x2C5 JUMPI PUSH1 0x0 DUP1 REVERT JUMPDEST POP JUMP INVALID LOG2 PUSH5 0x6970667358 0x22 SLT KECCAK256 0xEA RETURN JUMPI CALLDATACOPY PUSH18 0x43C48B350ACBBCF4CC3BEE3ED7CF1F30E2AB 0x4D 0xD5 DUP12 PUSH8 0xCEF0B3849264736F PUSH13 0x63430008000033000000000000 "
				},
				"gasEstimates": {
					"creation": {
						"codeDepositCost": "153200",
						"executionCost": "196",
						"totalCost": "153396"
					},
					"external": {
						"transferFunds(address,bytes)": "infinite"
					}
				},
				"methodIdentifiers": {
					"transferFunds(address,bytes)": "474ed225"
				}
			},
			"storageLayout": {
				"storage": [],
				"types": null
			},
			"userdoc": {
				"kind": "user",
				"methods": {},
				"version": 1
			}
		}
	}
}